{
  "contractName": "Counter",
  "abi": [
    {
      "inputs": [],
      "name": "add",
      "outputs": [],
      "stateMutability": "nonpayable",
      "type": "function"
    },
    {
      "inputs": [],
      "name": "subtract",
      "outputs": [],
      "stateMutability": "nonpayable",
      "type": "function"
    },
    {
      "inputs": [],
      "name": "getCounter",
      "outputs": [
        {
          "internalType": "uint256",
          "name": "",
          "type": "uint256"
        }
      ],
      "stateMutability": "view",
      "type": "function"
    }
  ],
  "bytecode": "0x60806040526000805534801561001457600080fd5b506101bf806100246000396000f3fe608060405234801561001057600080fd5b50600436106100415760003560e01c80634f2be91f146100465780636deebae3146100505780638ada066e1461005a575b600080fd5b61004e610078565b005b610058610091565b005b6100626100aa565b60405161006f91906100c2565b60405180910390f35b60008081548092919061008a90610111565b9190505550565b6000808154809291906100a3906100e7565b9190505550565b60008054905090565b6100bc816100dd565b82525050565b60006020820190506100d760008301846100b3565b92915050565b6000819050919050565b60006100f2826100dd565b915060008214156101065761010561015a565b5b600182039050919050565b600061011c826100dd565b91507fffffffffffffffffffffffffffffffffffffffffffffffffffffffffffffffff82141561014f5761014e61015a565b5b600182019050919050565b7f4e487b7100000000000000000000000000000000000000000000000000000000600052601160045260246000fdfea264697066735822122068d2f3b22d9180c46e6cb88284b4d4c364105cac0fdcbc073f2fb27cfa36300a64736f6c63430008070033",
  "immutableReferences": {},
  "source": "pragma solidity ^0.8.0;\n\ncontract Counter {\n  uint256 counter = 0;\n\n  function add() public {\n    counter++;\n  }\n\n  function subtract() public {\n    counter--;\n  }\n\n  function getCounter() public view returns (uint256) {\n    return counter;\n  }\n}\n",
  "sourcePath": "/Users/nikolai/blockchain-integration-tests/smart_contract/contracts/Counter.sol",
  "compiler": {
    "name": "solc",
    "version": "0.8.7+commit.e28d00a7.Emscripten.clang"
  },
  "schemaVersion": "3.4.7",
  "updatedAt": "2022-07-05T14:49:42.640Z",
  "devdoc": {
    "kind": "dev",
    "methods": {},
    "version": 1
  },
  "userdoc": {
    "kind": "user",
    "methods": {},
    "version": 1
  }
}